{
  "contractName": "TransparentUpgradableProxy",
  "abi": [
    {
      "inputs": [
        {
          "internalType": "address",
          "name": "_logic",
          "type": "address"
        },
        {
          "internalType": "address",
          "name": "admin_",
          "type": "address"
        }
      ],
      "stateMutability": "nonpayable",
      "type": "constructor"
    },
    {
      "anonymous": false,
      "inputs": [
        {
          "indexed": false,
          "internalType": "address",
          "name": "previousAdmin",
          "type": "address"
        },
        {
          "indexed": false,
          "internalType": "address",
          "name": "newAdmin",
          "type": "address"
        }
      ],
      "name": "AdminChanged",
      "type": "event"
    },
    {
      "anonymous": false,
      "inputs": [
        {
          "indexed": true,
          "internalType": "address",
          "name": "implementation",
          "type": "address"
        }
      ],
      "name": "Upgraded",
      "type": "event"
    },
    {
      "stateMutability": "payable",
      "type": "fallback",
      "payable": true
    },
    {
      "inputs": [],
      "name": "getImplementation",
      "outputs": [
        {
          "internalType": "address",
          "name": "",
          "type": "address"
        }
      ],
      "stateMutability": "view",
      "type": "function",
      "constant": true
    },
    {
      "inputs": [],
      "name": "admin",
      "outputs": [
        {
          "internalType": "address",
          "name": "admin_",
          "type": "address"
        }
      ],
      "stateMutability": "nonpayable",
      "type": "function"
    },
    {
      "inputs": [],
      "name": "implementation",
      "outputs": [
        {
          "internalType": "address",
          "name": "implementation_",
          "type": "address"
        }
      ],
      "stateMutability": "nonpayable",
      "type": "function"
    },
    {
      "inputs": [
        {
          "internalType": "address",
          "name": "newImplementation",
          "type": "address"
        }
      ],
      "name": "upgradeTo",
      "outputs": [],
      "stateMutability": "nonpayable",
      "type": "function"
    },
    {
      "inputs": [
        {
          "internalType": "address",
          "name": "newAdmin",
          "type": "address"
        }
      ],
      "name": "changeAdmin",
      "outputs": [],
      "stateMutability": "nonpayable",
      "type": "function"
    }
  ],
  "bytecode": "0x608060405234801561001057600080fd5b5060405161072b38038061072b83398101604081905261002f91610145565b816100428164010000000061005c810204565b5061005581640100000000610100810204565b5050610177565b6100728164010000000061035f61012482021704565b6100dc576040517f08c379a000000000000000000000000000000000000000000000000000000000815260206004820152601660248201527f61646472657373206e6f74206120636f6e747261637400000000000000000000604482015260640160405180910390fd5b7f9d0e7c9f46d954d68eb4643b89cf3814d3462d932e7ccb71d198ca1f67adb8e355565b7faf3ccdab63767d83181d2ac8c40c256cce5f7d52dd79fa93eadafa27d81b942e55565b803b15155b919050565b8051600160a060020a038116811461012957600080fd5b60008060408385031215610157578182fd5b6101608361012e565b915061016e6020840161012e565b90509250929050565b6105a5806101866000396000f3fe608060405260043610610066577c010000000000000000000000000000000000000000000000000000000060003504633659cfe681146100705780635c60da1b146100905780638f283970146100c1578063aaf10f42146100e1578063f851a440146100f6575b61006e61010b565b005b34801561007c57600080fd5b5061006e61008b366004610501565b610133565b34801561009c57600080fd5b506100a5610175565b604051600160a060020a03909116815260200160405180910390f35b3480156100cd57600080fd5b5061006e6100dc366004610501565b6101c9565b3480156100ed57600080fd5b506100a56102fc565b34801561010257600080fd5b506100a5610319565b610113610365565b61013161012c6000805160206105508339815191525490565b61041e565b565b60008051602061053083398151915254600160a060020a031633600160a060020a0316141561016a5761016581610442565b610172565b61017261010b565b50565b600061018d6000805160206105308339815191525490565b600160a060020a031633600160a060020a031614156101be57600080516020610550833981519152545b90506101c6565b6101c661010b565b90565b60008051602061053083398151915254600160a060020a031633600160a060020a0316141561016a57600160a060020a03811661028d576040517f08c379a000000000000000000000000000000000000000000000000000000000815260206004820152603260248201527f5472616e73706172656e7455706772616461626c6550726f78793a206e65772060448201527f61646d696e20697320616464726573732030000000000000000000000000000060648201526084015b60405180910390fd5b7f7e644d79422f17c01e4894b5f4f588d331ebfa28653d42ae832dc59e38c9798f6102c46000805160206105308339815191525490565b60408051600160a060020a03928316815291841660208301520160405180910390a16101658160008051602061053083398151915255565b60006103146000805160206105508339815191525490565b905090565b60006103316000805160206105308339815191525490565b600160a060020a031633600160a060020a031614156101be57600080516020610530833981519152546101b7565b3b151590565b60008051602061053083398151915254600160a060020a031633600160a060020a03161415610416576040517f08c379a000000000000000000000000000000000000000000000000000000000815260206004820152602560248201527f41646d696e2063616e6e6f742066616c6c6261636b20746f2070726f7879207460448201527f61726765740000000000000000000000000000000000000000000000000000006064820152608401610284565b610131610482565b3660008037600080366000845af43d6000803e80801561043d573d6000f35b3d6000fd5b61044b81610487565b604051600160a060020a038216907fbc7cd75a20ee27fd9adebab32041f755214dbc6bffa90cc0225b39da2e5c2d3b90600090a250565b610131565b803b6104ef576040517f08c379a000000000000000000000000000000000000000000000000000000000815260206004820152601660248201527f61646472657373206e6f74206120636f6e7472616374000000000000000000006044820152606401610284565b60008051602061055083398151915255565b600060208284031215610512578081fd5b8135600160a060020a0381168114610528578182fd5b939250505056feaf3ccdab63767d83181d2ac8c40c256cce5f7d52dd79fa93eadafa27d81b942e9d0e7c9f46d954d68eb4643b89cf3814d3462d932e7ccb71d198ca1f67adb8e3a2646970667358221220f16a613cb2b7f9fbf44ef82d73ea6a280a622b49c9bdc0ffaa8e62e127cd17c064736f6c63430008030033",
  "immutableReferences": {},
  "source": "// SPDX-License-Identifier: GPL-3.0\n\npragma solidity >=0.7.0 <0.9.0;\n\nimport \"./UpgradableProxy.sol\";\n\ncontract TransparentUpgradableProxy is UpgradableProxy {\n    \n    bytes32 constant ADMIN_SLOT = keccak256(\"leave.me.alone.slot\");\n    \n    event AdminChanged(address previousAdmin, address newAdmin);\n    \n    constructor(address _logic, address admin_) UpgradableProxy(_logic) {\n        _setAdmin(admin_);\n    }\n\n    modifier isAdmin() {\n        if (msg.sender == _admin()) {\n            _;\n        } else {\n            _fallback();\n        }\n    }\n    \n    function admin() external isAdmin returns (address admin_) {\n        admin_ = _admin();\n    }\n    \n    function implementation() external isAdmin returns(address implementation_) {\n        implementation_ = _implementation();\n    }    \n    \n    function upgradeTo(address newImplementation) external isAdmin {\n        _upgradeTo(newImplementation);\n    }\n    \n    function changeAdmin(address newAdmin) external virtual isAdmin {\n        require(newAdmin != address(0), \"TransparentUpgradableProxy: new admin is address 0\");\n        emit AdminChanged(_admin(), newAdmin);\n        _setAdmin(newAdmin);\n    }\n    \n    function _setAdmin(address newAdmin) private {\n        bytes32 slot = ADMIN_SLOT;\n        \n        assembly {\n            sstore(slot, newAdmin)\n        }\n    }\n    \n    function _admin() internal view virtual returns(address admin) {\n        bytes32 slot = ADMIN_SLOT;\n        \n        assembly {\n            admin := sload(slot)\n        }\n    }    \n    \n    function _beforeFallback() internal virtual override {\n        require(msg.sender != _admin(), \"Admin cannot fallback to proxy target\");\n        super._beforeFallback();\n    }\n}",
  "sourcePath": "/Users/AlsieSam/Desktop/DEX/truffle/contracts/TransparentUpgradableProxy.sol",
  "compiler": {
    "name": "solc",
    "version": "0.8.3+commit.8d00100c.Emscripten.clang"
  },
  "schemaVersion": "3.4.4",
  "updatedAt": "2022-02-04T16:01:01.340Z",
  "networkType": "ethereum",
  "devdoc": {
    "kind": "dev",
    "methods": {},
    "version": 1
  },
  "userdoc": {
    "kind": "user",
    "methods": {},
    "version": 1
  }
}