{
  "contractName": "UpgradableProxy",
  "abi": [
    {
      "inputs": [
        {
          "internalType": "address",
          "name": "_logic",
          "type": "address"
        }
      ],
      "stateMutability": "nonpayable",
      "type": "constructor"
    },
    {
      "anonymous": false,
      "inputs": [
        {
          "indexed": true,
          "internalType": "address",
          "name": "implementation",
          "type": "address"
        }
      ],
      "name": "Upgraded",
      "type": "event"
    },
    {
      "stateMutability": "payable",
      "type": "fallback"
    },
    {
      "stateMutability": "payable",
      "type": "receive"
    },
    {
      "inputs": [],
      "name": "getImplementation",
      "outputs": [
        {
          "internalType": "address",
          "name": "",
          "type": "address"
        }
      ],
      "stateMutability": "view",
      "type": "function"
    }
  ],
  "bytecode": "0x608060405234801561001057600080fd5b5060405161028938038061028983398101604081905261002f916100f1565b61004181640100000000610047810204565b5061011f565b61005d816401000000006100f66100eb82021704565b6100c7576040517f08c379a000000000000000000000000000000000000000000000000000000000815260206004820152601660248201527f61646472657373206e6f74206120636f6e747261637400000000000000000000604482015260640160405180910390fd5b7f9d0e7c9f46d954d68eb4643b89cf3814d3462d932e7ccb71d198ca1f67adb8e355565b3b151590565b600060208284031215610102578081fd5b8151600160a060020a0381168114610118578182fd5b9392505050565b61015b8061012e6000396000f3fe60806040526004361061003e577c01000000000000000000000000000000000000000000000000000000006000350463aaf10f42811461004f57610045565b3661004557005b61004d61008d565b005b34801561005b57600080fd5b506100646100c7565b60405173ffffffffffffffffffffffffffffffffffffffff909116815260200160405180910390f35b6100956100fc565b6100c56100c07f9d0e7c9f46d954d68eb4643b89cf3814d3462d932e7ccb71d198ca1f67adb8e35490565b610101565b565b60006100f17f9d0e7c9f46d954d68eb4643b89cf3814d3462d932e7ccb71d198ca1f67adb8e35490565b905090565b3b151590565b6100c5565b3660008037600080366000845af43d6000803e808015610120573d6000f35b3d6000fdfea2646970667358221220678b50ed78e900b84dfbebd60ae1c543ad30b092d43bd965b18b075b38994ad464736f6c63430008030033",
  "immutableReferences": {},
  "source": "// SPDX-License-Identifier: GPL-3.0\n\npragma solidity ^0.8.0;\n\nimport \"./Address.sol\";\nimport \"./Proxy.sol\";\n\ncontract UpgradableProxy is Proxy {\n    \n    bytes32 constant IMPLEMENTATION_SLOT = keccak256(\"proxy.upgradable.pattern.test.mine\");\n\n    \n    event Upgraded(address indexed implementation);\n    \n    constructor(address _logic) {\n        _setImplementation(_logic);\n    }\n\n    function getImplementation() public view returns (address) {\n        return _implementation();\n    }\n    \n    function _implementation() internal view override returns (address) {\n        address impl;\n        bytes32 slot = IMPLEMENTATION_SLOT;\n        assembly {\n            impl := sload(slot)\n        }\n        return impl;\n    }\n    \n    function _upgradeTo(address newImplementation) internal virtual {\n        _setImplementation(newImplementation);\n        emit Upgraded(newImplementation);\n    }\n    \n    function _setImplementation(address newImplementation) private {\n        require(Address.isContract(newImplementation), \"address not a contract\");\n        bytes32 slot = IMPLEMENTATION_SLOT;\n        assembly {\n            sstore(slot, newImplementation)\n        }\n    }\n    \n    function _beforeFallback() internal virtual override {\n        super._beforeFallback();\n    }\n}",
  "sourcePath": "/Users/AlsieSam/Desktop/DEX/truffle/contracts/UpgradableProxy.sol",
  "compiler": {
    "name": "solc",
    "version": "0.8.3+commit.8d00100c.Emscripten.clang"
  },
  "schemaVersion": "3.4.3",
  "updatedAt": "2022-03-01T15:24:37.899Z",
  "devdoc": {
    "kind": "dev",
    "methods": {},
    "version": 1
  },
  "userdoc": {
    "kind": "user",
    "methods": {},
    "version": 1
  }
}